:060000000A128A11142906
:100200008A010A140F3982073F3406345B344F34B5
:1002100066346D347D3407347F346F3477347C3406
:1002200039345E3479347134242139214021051C5C
:100230005621851C5D210B1D172950212008080619
:1002400003194D21880A1B29831603178801890188
:100250000313051485140313831606108701081071
:100260008810081188110313831287018801860101
:100270000800031383160F140F138F120F160800B4
:1002800003138316811281110115811401140313C4
:1002900083128C3081000B110800860A88011B290B
:1002A000031383128C3081000B110800051C5629A2
:1002B000A00A2008002187000800851C5D29A003F2
:0802C00020080021870008005E
:04400E00C430FF3F7C
:00000001FF
